{
  "_format": "hh3-artifact-1",
  "contractName": "MetaNFTAuctionV2",
  "sourceName": "contracts/MetaNFTAuctionV2.sol",
  "abi": [
    {
      "inputs": [],
      "stateMutability": "nonpayable",
      "type": "constructor"
    },
    {
      "anonymous": false,
      "inputs": [
        {
          "indexed": true,
          "internalType": "address",
          "name": "sender",
          "type": "address"
        },
        {
          "indexed": false,
          "internalType": "uint256",
          "name": "amount",
          "type": "uint256"
        },
        {
          "indexed": false,
          "internalType": "uint256",
          "name": "bidMethod",
          "type": "uint256"
        }
      ],
      "name": "Bid",
      "type": "event"
    },
    {
      "anonymous": false,
      "inputs": [
        {
          "indexed": true,
          "internalType": "uint256",
          "name": "auctionId",
          "type": "uint256"
        }
      ],
      "name": "EndBid",
      "type": "event"
    },
    {
      "anonymous": false,
      "inputs": [
        {
          "indexed": false,
          "internalType": "uint8",
          "name": "version",
          "type": "uint8"
        }
      ],
      "name": "Initialized",
      "type": "event"
    },
    {
      "anonymous": false,
      "inputs": [
        {
          "indexed": false,
          "internalType": "uint256",
          "name": "startingBid",
          "type": "uint256"
        }
      ],
      "name": "StartBid",
      "type": "event"
    },
    {
      "anonymous": false,
      "inputs": [
        {
          "indexed": true,
          "internalType": "address",
          "name": "bidder",
          "type": "address"
        },
        {
          "indexed": false,
          "internalType": "uint256",
          "name": "amount",
          "type": "uint256"
        }
      ],
      "name": "Withdraw",
      "type": "event"
    },
    {
      "inputs": [
        {
          "internalType": "uint256",
          "name": "",
          "type": "uint256"
        }
      ],
      "name": "auctions",
      "outputs": [
        {
          "internalType": "bool",
          "name": "end",
          "type": "bool"
        },
        {
          "internalType": "contract IERC721",
          "name": "nft",
          "type": "address"
        },
        {
          "internalType": "uint256",
          "name": "nftId",
          "type": "uint256"
        },
        {
          "internalType": "address payable",
          "name": "seller",
          "type": "address"
        },
        {
          "internalType": "uint256",
          "name": "startingTime",
          "type": "uint256"
        },
        {
          "internalType": "address",
          "name": "highestBidder",
          "type": "address"
        },
        {
          "internalType": "uint256",
          "name": "startingPriceInDollar",
          "type": "uint256"
        },
        {
          "internalType": "uint256",
          "name": "duration",
          "type": "uint256"
        },
        {
          "internalType": "contract IERC20",
          "name": "paymentToken",
          "type": "address"
        },
        {
          "internalType": "uint256",
          "name": "highestBid",
          "type": "uint256"
        }
      ],
      "stateMutability": "view",
      "type": "function"
    },
    {
      "inputs": [
        {
          "internalType": "uint256",
          "name": "auctionId_",
          "type": "uint256"
        }
      ],
      "name": "bid",
      "outputs": [],
      "stateMutability": "payable",
      "type": "function"
    },
    {
      "inputs": [
        {
          "internalType": "uint256",
          "name": "",
          "type": "uint256"
        },
        {
          "internalType": "address",
          "name": "",
          "type": "address"
        }
      ],
      "name": "bidMethods",
      "outputs": [
        {
          "internalType": "uint256",
          "name": "",
          "type": "uint256"
        }
      ],
      "stateMutability": "view",
      "type": "function"
    },
    {
      "inputs": [
        {
          "internalType": "uint256",
          "name": "",
          "type": "uint256"
        },
        {
          "internalType": "address",
          "name": "",
          "type": "address"
        }
      ],
      "name": "bids",
      "outputs": [
        {
          "internalType": "uint256",
          "name": "",
          "type": "uint256"
        }
      ],
      "stateMutability": "view",
      "type": "function"
    },
    {
      "inputs": [
        {
          "internalType": "uint256",
          "name": "auctionId_",
          "type": "uint256"
        }
      ],
      "name": "endBidding",
      "outputs": [],
      "stateMutability": "nonpayable",
      "type": "function"
    },
    {
      "inputs": [
        {
          "internalType": "uint256",
          "name": "bidMethod",
          "type": "uint256"
        }
      ],
      "name": "getPriceDecimals",
      "outputs": [
        {
          "internalType": "uint8",
          "name": "",
          "type": "uint8"
        }
      ],
      "stateMutability": "view",
      "type": "function"
    },
    {
      "inputs": [
        {
          "internalType": "uint256",
          "name": "bidMethod",
          "type": "uint256"
        }
      ],
      "name": "getPriceInDollar",
      "outputs": [
        {
          "internalType": "uint256",
          "name": "",
          "type": "uint256"
        }
      ],
      "stateMutability": "view",
      "type": "function"
    },
    {
      "inputs": [],
      "name": "getVersion",
      "outputs": [
        {
          "internalType": "string",
          "name": "",
          "type": "string"
        }
      ],
      "stateMutability": "pure",
      "type": "function"
    },
    {
      "inputs": [
        {
          "internalType": "address",
          "name": "admin_",
          "type": "address"
        }
      ],
      "name": "initialize",
      "outputs": [],
      "stateMutability": "nonpayable",
      "type": "function"
    },
    {
      "inputs": [
        {
          "internalType": "address",
          "name": "seller",
          "type": "address"
        },
        {
          "internalType": "uint256",
          "name": "nftId",
          "type": "uint256"
        },
        {
          "internalType": "address",
          "name": "nft",
          "type": "address"
        },
        {
          "internalType": "uint256",
          "name": "startingPriceInDollar",
          "type": "uint256"
        },
        {
          "internalType": "uint256",
          "name": "duration",
          "type": "uint256"
        },
        {
          "internalType": "address",
          "name": "paymentToken",
          "type": "address"
        }
      ],
      "name": "start",
      "outputs": [],
      "stateMutability": "nonpayable",
      "type": "function"
    },
    {
      "inputs": [
        {
          "internalType": "uint256",
          "name": "auctionId_",
          "type": "uint256"
        }
      ],
      "name": "withdraw",
      "outputs": [],
      "stateMutability": "nonpayable",
      "type": "function"
    }
  ],
  "bytecode": "0x6080604052348015600e575f5ffd5b5060156019565b60d3565b5f54610100900460ff161560835760405162461bcd60e51b815260206004820152602760248201527f496e697469616c697a61626c653a20636f6e747261637420697320696e697469604482015266616c697a696e6760c81b606482015260840160405180910390fd5b5f5460ff9081161460d1575f805460ff191660ff9081179091556040519081527f7f26b83ff96e1f2b6a682f133852f6798a09c465da95921460cefb38474024989060200160405180910390a15b565b6114a1806100e05f395ff3fe60806040526004361061009a575f3560e01c80634d10e8a2116100625780634d10e8a21461017c578063571a26a0146101b257806363f86ab314610285578063baac642b146102b6578063c4d66de8146102d5578063f3e47e49146102f4575f5ffd5b8063093755ad1461009e5780630d8e6e2c146100bf5780632e1a7d4d146101065780633f1ffcec14610125578063454a2ab314610169575b5f5ffd5b3480156100a9575f5ffd5b506100bd6100b83660046110e3565b610313565b005b3480156100ca575f5ffd5b50604080518082018252601081526f26b2ba30a7232a20bab1ba34b7b72b1960811b602082015290516100fd91906110fa565b60405180910390f35b348015610111575f5ffd5b506100bd6101203660046110e3565b6103cf565b348015610130575f5ffd5b5061015b61013f36600461114a565b600160209081525f928352604080842090915290825290205481565b6040519081526020016100fd565b6100bd6101773660046110e3565b6105c1565b348015610187575f5ffd5b5061015b61019636600461114a565b600260209081525f928352604080842090915290825290205481565b3480156101bd575f5ffd5b5061022c6101cc3660046110e3565b600460208190525f918252604090912080546001820154600283015460038401549484015460058501546006860154600787015460089097015460ff8716986101009097046001600160a01b03908116989697958116969481169416908a565b604080519a15158b526001600160a01b03998a1660208c01528a01979097529487166060890152608088019390935290851660a087015260c086015260e0850152909116610100830152610120820152610140016100fd565b348015610290575f5ffd5b506102a461029f3660046110e3565b610b16565b60405160ff90911681526020016100fd565b3480156102c1575f5ffd5b506100bd6102d0366004611174565b610bb9565b3480156102e0575f5ffd5b506100bd6102ef3660046111cf565b610e32565b3480156102ff575f5ffd5b5061015b61030e3660046110e3565b610f9d565b5f81815260046020818152604080842081516101408101835281546001600160a01b0361010091829004811695830195909552600180840154838601526002840154861660608401526003840154608084015295830154851660a0830152600583015460c0830152600683015460e0830152600783015490941693810193909352600801546101208301529181529051909183917f49f8c3bdcd0eb514e0cc6e15c20ea38221feede47b929c3ea387bf7ec5ed09cf9190a25050565b5f81815260046020818152604092839020835161014081018552815460ff8116151582526001600160a01b036101009182900481169483019490945260018301549582019590955260028201548316606082015260038201546080820181905293820154831660a0820152600582015460c0820152600682015460e0820181905260078301549093169481019490945260080154610120840152610472916111fc565b42101561049a5760405162461bcd60e51b815260040161049190611215565b60405180910390fd5b5f8281526002602090815260408083203380855290835281842054868552600180855283862092865291909352908320805493905590919082900361050957604051339082156108fc029083905f818181858888f19350505050158015610503573d5f5f3e3d5ffd5b50610586565b6101008301516040516323b872dd60e01b8152306004820152336024820152604481018390526001600160a01b03909116906323b872dd906064016020604051808303815f875af1158015610560573d5f5f3e3d5ffd5b505050506040513d601f19601f820116820180604052508101906105849190611234565b505b60405181815233907f884edad9ce6fa2440d8a54cc123490eb96d2768479d49ff9c7366125a94243649060200160405180910390a250505050565b5f818152600460208181526040808420815161014081018352815460ff8116151582526001600160a01b03610100918290048116958301959095526001830154828501526002830154851660608301526003830154608083015282860154851660a0830152600583015460c0830152600683015460e083015260078301549094169381018490526008909101546101208201529051636eb1769f60e11b81523393810193909352306024840152929163dd62ed3e90604401602060405180830381865afa158015610694573d5f5f3e3d5ffd5b505050506040513d601f19601f820116820180604052508101906106b89190611253565b90505f3411806106c757505f81115b6106e35760405162461bcd60e51b81526004016104919061126a565b5f341180156106f157505f81115b61073d5760405162461bcd60e51b815260206004820152601860248201527f6f6e6c79206f6e65206f6620455448206f7220746f6b656e00000000000000006044820152606401610491565b5f82608001511161077e5760405162461bcd60e51b815260206004820152600b60248201526a1b9bdd081cdd185c9d195960aa1b6044820152606401610491565b81511561079d5760405162461bcd60e51b815260040161049190611215565b8160e0015182608001516107b191906111fc565b42106107cf5760405162461bcd60e51b815260040161049190611215565b60a08201516001600160a01b031615610823576101208201515f84815260016020908152604080832060a08701516001600160a01b031684529091528120805490919061081d9084906111fc565b90915550505b5f8034156108c8575f8581526002602090815260408083203384529091528120549250829003610872575f85815260026020908152604080832033845290915290206001908190559150610892565b816001146108925760405162461bcd60e51b81526004016104919061126a565b5f61089c83610f9d565b90505f6108a884610b16565b90506108b73460128484611047565b346101208801529250610a83915050565b5f83116109095760405162461bcd60e51b815260206004820152600f60248201526e1a5b9d985b1a59081c185e5b595b9d608a1b6044820152606401610491565b5f858152600260209081526040808320338452909152812054925082900361094e575f858152600260208181526040808420338552909152909120819055915061096e565b8160021461096e5760405162461bcd60e51b81526004016104919061126a565b5f61097883610f9d565b90505f61098484610b16565b90505f8661010001516001600160a01b031663313ce5676040518163ffffffff1660e01b8152600401602060405180830381865afa1580156109c8573d5f5f3e3d5ffd5b505050506040513d601f19601f820116820180604052508101906109ec919061128f565b90506109fa86828585611047565b61012088018790526101008801516040516323b872dd60e01b8152336004820152306024820152604481018990529195506001600160a01b0316906323b872dd906064016020604051808303815f875af1158015610a5a573d5f5f3e3d5ffd5b505050506040513d601f19601f82011682018060405250810190610a7e9190611234565b505050505b808460c0015110610ace5760405162461bcd60e51b8152602060048201526015602482015274696e76616c6964207374617274696e67507269636560581b6044820152606401610491565b3360a0850181905260408051348152602081018590527f19421268847f42dd61705778018ddfc43bcdce8517e7a630acb12f122c709481910160405180910390a25050505050565b5f5f82600103610b3b575073694aa1769357215de4fac081bf1f309adc325306610b52565b5073a2f78ab2355fe2f984d808b5cee7fd0a93d5270e5b806001600160a01b031663313ce5676040518163ffffffff1660e01b8152600401602060405180830381865afa158015610b8e573d5f5f3e3d5ffd5b505050506040513d601f19601f82011682018060405250810190610bb2919061128f565b9392505050565b5f546201000090046001600160a01b03163314610c045760405162461bcd60e51b81526020600482015260096024820152683737ba1030b236b4b760b91b6044820152606401610491565b6001600160a01b038416610c485760405162461bcd60e51b815260206004820152600b60248201526a1a5b9d985b1a59081b999d60aa1b6044820152606401610491565b603c8211610c8b5760405162461bcd60e51b815260206004820152601060248201526f34b73b30b634b210323ab930ba34b7b760811b6044820152606401610491565b6001600160a01b038116610cd95760405162461bcd60e51b815260206004820152601560248201527434b73b30b634b2103830bcb6b2b73a103a37b5b2b760591b6044820152606401610491565b60408051610140810182525f8082526001600160a01b0380881660208085019182528486018b81528c841660608701908152426080880190815260a0880187815260c089018d815260e08a018d81528c8916610100808d019182526101208d018c8152600380548e5260049a8b90529e8d209d518e549b518d16909202610100600160a81b0319921515929092166001600160a81b0319909b169a909a17178c55955160018c0155935160028b018054918a166001600160a01b031992831617905592518a8c015590519489018054958816958316959095179094559251600588015551600687015551600786018054919094169116179091555160089092019190915581549190610dea836112af565b91905055507fb5949404365a99702891e7d343a17849cef9b8b7bdb7773922e333f46de188a7600354604051610e2291815260200190565b60405180910390a1505050505050565b5f54610100900460ff1615808015610e5057505f54600160ff909116105b80610e695750303b158015610e6957505f5460ff166001145b610ecc5760405162461bcd60e51b815260206004820152602e60248201527f496e697469616c697a61626c653a20636f6e747261637420697320616c72656160448201526d191e481a5b9a5d1a585b1a5e995960921b6064820152608401610491565b5f805460ff191660011790558015610eed575f805461ff0019166101001790555b6001600160a01b038216610f335760405162461bcd60e51b815260206004820152600d60248201526c34b73b30b634b21030b236b4b760991b6044820152606401610491565b5f805462010000600160b01b031916620100006001600160a01b038516021790558015610f99575f805461ff0019169055604051600181527f7f26b83ff96e1f2b6a682f133852f6798a09c465da95921460cefb38474024989060200160405180910390a15b5050565b5f5f82600103610fc2575073694aa1769357215de4fac081bf1f309adc325306610fd9565b5073a2f78ab2355fe2f984d808b5cee7fd0a93d5270e5b5f816001600160a01b031663feaf968c6040518163ffffffff1660e01b815260040160a060405180830381865afa158015611016573d5f5f3e3d5ffd5b505050506040513d601f19601f8201168201806040525081019061103a91906112e0565b5091979650505050505050565b5f8061105760ff8616600a611411565b90505f81611065868961141c565b61106f9190611433565b9050600860ff851611156110a757611088600885611452565b6110969060ff16600a611411565b6110a09082611433565b90506110d9565b600860ff851610156110d9576110be846008611452565b6110cc9060ff16600a611411565b6110d6908261141c565b90505b9695505050505050565b5f602082840312156110f3575f5ffd5b5035919050565b602081525f82518060208401528060208501604085015e5f604082850101526040601f19601f83011684010191505092915050565b80356001600160a01b0381168114611145575f5ffd5b919050565b5f5f6040838503121561115b575f5ffd5b8235915061116b6020840161112f565b90509250929050565b5f5f5f5f5f5f60c08789031215611189575f5ffd5b6111928761112f565b9550602087013594506111a76040880161112f565b935060608701359250608087013591506111c360a0880161112f565b90509295509295509295565b5f602082840312156111df575f5ffd5b610bb28261112f565b634e487b7160e01b5f52601160045260245ffd5b8082018082111561120f5761120f6111e8565b92915050565b602080825260059082015264195b99195960da1b604082015260600190565b5f60208284031215611244575f5ffd5b81518015158114610bb2575f5ffd5b5f60208284031215611263575f5ffd5b5051919050565b6020808252600b908201526a1a5b9d985b1a5908189a5960aa1b604082015260600190565b5f6020828403121561129f575f5ffd5b815160ff81168114610bb2575f5ffd5b5f600182016112c0576112c06111e8565b5060010190565b805169ffffffffffffffffffff81168114611145575f5ffd5b5f5f5f5f5f60a086880312156112f4575f5ffd5b6112fd866112c7565b60208701516040880151606089015192975090955093509150611322608087016112c7565b90509295509295909350565b6001815b60018411156113695780850481111561134d5761134d6111e8565b600184161561135b57908102905b60019390931c928002611332565b935093915050565b5f8261137f5750600161120f565b8161138b57505f61120f565b81600181146113a157600281146113ab576113c7565b600191505061120f565b60ff8411156113bc576113bc6111e8565b50506001821b61120f565b5060208310610133831016604e8410600b84101617156113ea575081810a61120f565b6113f65f19848461132e565b805f1904821115611409576114096111e8565b029392505050565b5f610bb28383611371565b808202811582820484141761120f5761120f6111e8565b5f8261144d57634e487b7160e01b5f52601260045260245ffd5b500490565b60ff828116828216039081111561120f5761120f6111e856fea264697066735822122050d7634c679a134b87ce43ebbe347a7146eaefb84eb72487d6ec7b496baca86c64736f6c634300081c0033",
  "linkReferences": {},
  "deployedLinkReferences": {},
  "immutableReferences": {},
  "inputSourceName": "project/contracts/MetaNFTAuctionV2.sol",
  "buildInfoId": "solc-0_8_28-ed0a92ff906e486c105ef5dc3a4e97f3c4dc5191"
}